{
  "contractName": "ChainHours",
  "abi": [
    {
      "constant": false,
      "inputs": [
        {
          "name": "_name",
          "type": "bytes32"
        },
        {
          "name": "_rand",
          "type": "bytes32"
        }
      ],
      "name": "mintToken",
      "outputs": [],
      "payable": false,
      "stateMutability": "nonpayable",
      "type": "function"
    },
    {
      "constant": true,
      "inputs": [
        {
          "name": "_name",
          "type": "bytes32"
        }
      ],
      "name": "getTokenList",
      "outputs": [
        {
          "name": "",
          "type": "bytes32[]"
        }
      ],
      "payable": false,
      "stateMutability": "view",
      "type": "function"
    },
    {
      "constant": false,
      "inputs": [
        {
          "name": "_name",
          "type": "bytes32"
        }
      ],
      "name": "inventToken",
      "outputs": [],
      "payable": false,
      "stateMutability": "nonpayable",
      "type": "function"
    },
    {
      "constant": true,
      "inputs": [
        {
          "name": "_name",
          "type": "bytes32"
        },
        {
          "name": "_rand",
          "type": "bytes32"
        }
      ],
      "name": "checkToken",
      "outputs": [
        {
          "name": "",
          "type": "bool"
        }
      ],
      "payable": false,
      "stateMutability": "view",
      "type": "function"
    }
  ],
  "bytecode": "0x6060604052341561000f57600080fd5b6105588061001e6000396000f300606060405260043610610062576000357c0100000000000000000000000000000000000000000000000000000000900463ffffffff1680630912b7aa1461006757806347d3e24f1461009b57806374ba31ca14610117578063f5c1281c1461013e575b600080fd5b341561007257600080fd5b6100996004808035600019169060200190919080356000191690602001909190505061018a565b005b34156100a657600080fd5b6100c0600480803560001916906020019091905050610317565b6040518080602001828103825283818151815260200191508051906020019060200280838360005b838110156101035780820151818401526020810190506100e8565b505050509050019250505060405180910390f35b341561012257600080fd5b61013c600480803560001916906020019091905050610396565b005b341561014957600080fd5b61017060048080356000191690602001909190803560001916906020019091905050610457565b604051808215151515815260200191505060405180910390f35b600081604051808260001916600019168152602001915050604051809103902090506000151560008085600019166000191681526020019081526020016000206000016000836000191660001916815260200190815260200160002060009054906101000a900460ff16151514151561020257600080fd5b3373ffffffffffffffffffffffffffffffffffffffff16600080856000191660001916815260200190815260200160002060010160009054906101000a900473ffffffffffffffffffffffffffffffffffffffff1673ffffffffffffffffffffffffffffffffffffffff1614151561027957600080fd5b600160008085600019166000191681526020019081526020016000206000016000836000191660001916815260200190815260200160002060006101000a81548160ff021916908315150217905550600080846000191660001916815260200190815260200160002060030180548060010182816102f791906104c7565b916000526020600020900160008390919091509060001916905550505050565b61031f6104f3565b600080836000191660001916815260200190815260200160002060030180548060200260200160405190810160405280929190818152602001828054801561038a57602002820191906000526020600020905b81546000191681526020019060010190808311610372575b50505050509050919050565b6000806000836000191660001916815260200190815260200160002060010160009054906101000a900473ffffffffffffffffffffffffffffffffffffffff1673ffffffffffffffffffffffffffffffffffffffff161415156103f857600080fd5b33600080836000191660001916815260200190815260200160002060010160006101000a81548173ffffffffffffffffffffffffffffffffffffffff021916908373ffffffffffffffffffffffffffffffffffffffff16021790555050565b600080826040518082600019166000191681526020019150506040518091039020905060008085600019166000191681526020019081526020016000206000016000826000191660001916815260200190815260200160002060009054906101000a900460ff1691505092915050565b8154818355818115116104ee578183600052602060002091820191016104ed9190610507565b5b505050565b602060405190810160405280600081525090565b61052991905b8082111561052557600081600090555060010161050d565b5090565b905600a165627a7a723058200406d2a03bd83504b76c881d6eb0fea514b917d7abe5458ed41af84114ab2da80029",
  "source": "pragma solidity ^0.4.4;\n\n// import './zeppelin/ownership/Ownable.sol';\n\ncontract ChainHours  {\n\n    struct user {\n        mapping (bytes32 => bool) tokens;\n        address owner;\n        bytes32 name;\n        bytes32[] tokenList;\n    }\n\n    mapping (bytes32 => user) users;\n\n    function inventToken(bytes32 _name) public {\n        require(users[_name].owner == 0);\n        users[_name].owner = msg.sender;\n    }\n\n    function mintToken(bytes32 _name, bytes32 _rand) public {\n        bytes32 key = keccak256(_rand);\n        require(users[_name].tokens[key] == false);\n        require(users[_name].owner == msg.sender);\n        users[_name].tokens[key] = true;\n        users[_name].tokenList.push(key);\n    }\n    \n    function getTokenList(bytes32 _name) public view returns(bytes32[]){\n        return users[_name].tokenList;\n    }\n    \n    function checkToken(bytes32 _name, bytes32 _rand) public view returns(bool) {\n      bytes32 key = keccak256(_rand);\n      return users[_name].tokens[key];\n    }\n\n}",
  "sourcePath": "/Users/rileyskyler/projects/Skyler-Hours/contracts/ChainHours.sol",
  "compiler": {
    "name": "solc",
    "version": "0.4.18+commit.9cf6e910.Emscripten.clang"
  },
  "schemaVersion": "1.0.1",
  "updatedAt": "2018-02-22T23:16:47.853Z"
}