{
  "contractName": "SkylerHours",
  "abi": [
    {
      "constant": true,
      "inputs": [
        {
          "name": "_str",
          "type": "bytes32"
        }
      ],
      "name": "checkToken",
      "outputs": [
        {
          "name": "",
          "type": "bool"
        }
      ],
      "payable": false,
      "stateMutability": "view",
      "type": "function"
    },
    {
      "constant": false,
      "inputs": [
        {
          "name": "_str",
          "type": "bytes32"
        }
      ],
      "name": "redeemToken",
      "outputs": [
        {
          "name": "",
          "type": "bool"
        }
      ],
      "payable": false,
      "stateMutability": "nonpayable",
      "type": "function"
    },
    {
      "constant": true,
      "inputs": [
        {
          "name": "",
          "type": "bytes32"
        }
      ],
      "name": "hourTokens",
      "outputs": [
        {
          "name": "unredeemed",
          "type": "bool"
        },
        {
          "name": "name",
          "type": "string"
        }
      ],
      "payable": false,
      "stateMutability": "view",
      "type": "function"
    },
    {
      "constant": true,
      "inputs": [],
      "name": "owner",
      "outputs": [
        {
          "name": "",
          "type": "address"
        }
      ],
      "payable": false,
      "stateMutability": "view",
      "type": "function"
    },
    {
      "constant": false,
      "inputs": [
        {
          "name": "_str",
          "type": "bytes32"
        }
      ],
      "name": "createToken",
      "outputs": [],
      "payable": false,
      "stateMutability": "nonpayable",
      "type": "function"
    },
    {
      "constant": false,
      "inputs": [
        {
          "name": "newOwner",
          "type": "address"
        }
      ],
      "name": "transferOwnership",
      "outputs": [],
      "payable": false,
      "stateMutability": "nonpayable",
      "type": "function"
    }
  ],
  "bytecode": "0x6060604052336000806101000a81548173ffffffffffffffffffffffffffffffffffffffff021916908373ffffffffffffffffffffffffffffffffffffffff160217905550610560806100536000396000f300606060405260043610610078576000357c0100000000000000000000000000000000000000000000000000000000900463ffffffff1680636630e8131461007d5780636e8951c6146100bc57806373087d12146100fb5780638da5cb5b146101c3578063ae3edb6514610218578063f2fde38b1461023f575b600080fd5b341561008857600080fd5b6100a2600480803560001916906020019091905050610278565b604051808215151515815260200191505060405180910390f35b34156100c757600080fd5b6100e16004808035600019169060200190919050506102cf565b604051808215151515815260200191505060405180910390f35b341561010657600080fd5b61012060048080356000191690602001909190505061035d565b6040518083151515158152602001806020018281038252838181546001816001161561010002031660029004815260200191508054600181600116156101000203166002900480156101b35780601f10610188576101008083540402835291602001916101b3565b820191906000526020600020905b81548152906001019060200180831161019657829003601f168201915b5050935050505060405180910390f35b34156101ce57600080fd5b6101d661038d565b604051808273ffffffffffffffffffffffffffffffffffffffff1673ffffffffffffffffffffffffffffffffffffffff16815260200191505060405180910390f35b341561022357600080fd5b61023d6004808035600019169060200190919050506103b2565b005b341561024a57600080fd5b610276600480803573ffffffffffffffffffffffffffffffffffffffff16906020019091905050610464565b005b600080826040518082600019166000191681526020019150506040518091039020905060016000826000191660001916815260200190815260200160002060000160009054906101000a900460ff16915050919050565b6000808260405180826000191660001916815260200191505060405180910390209050600060016000836000191660001916815260200190815260200160002060000160006101000a81548160ff02191690831515021790555060016000826000191660001916815260200190815260200160002060000160009054906101000a900460ff16915050919050565b60016020528060005260406000206000915090508060000160009054906101000a900460ff169080600101905082565b6000809054906101000a900473ffffffffffffffffffffffffffffffffffffffff1681565b60008060009054906101000a900473ffffffffffffffffffffffffffffffffffffffff1673ffffffffffffffffffffffffffffffffffffffff163373ffffffffffffffffffffffffffffffffffffffff1614156104605781604051808260001916600019168152602001915050604051809103902090506001806000836000191660001916815260200190815260200160002060000160006101000a81548160ff0219169083151502179055505b5050565b6000809054906101000a900473ffffffffffffffffffffffffffffffffffffffff1673ffffffffffffffffffffffffffffffffffffffff163373ffffffffffffffffffffffffffffffffffffffff16141561053157600073ffffffffffffffffffffffffffffffffffffffff168173ffffffffffffffffffffffffffffffffffffffff1614151561053057806000806101000a81548173ffffffffffffffffffffffffffffffffffffffff021916908373ffffffffffffffffffffffffffffffffffffffff1602179055505b5b505600a165627a7a723058209bf4e142cc5261ef2ca5a5e8859bb84b994fd784bc8c90d8569d63140e24e8060029",
  "source": "pragma solidity ^0.4.4;\n\nimport './zeppelin/ownership/Ownable.sol';\n\ncontract SkylerHours is Ownable {\n\n    struct hourToken {\n       bool unredeemed;\n       string name;\n    }\n    \n    mapping (bytes32 => hourToken) public hourTokens;\n    \n    function createToken(bytes32 _str) public onlyOwner {\n        bytes32 hashedStr = keccak256(_str);\n        hourTokens[hashedStr].unredeemed = true;\n    }\n    \n    function checkToken(bytes32 _str) public view returns (bool) {\n        bytes32 hashedStr = keccak256(_str);\n        return hourTokens[hashedStr].unredeemed;\n    }\n    \n    function redeemToken(bytes32 _str) public returns (bool) {\n        bytes32 hashedStr = keccak256(_str);\n        hourTokens[hashedStr].unredeemed = false;\n        return hourTokens[hashedStr].unredeemed;\n    }\n\n}",
  "sourcePath": "/Users/rileyskyler/projects/Skyler-Hours/contracts/SkylerHours.sol",
  "compiler": {
    "name": "solc",
    "version": "0.4.18+commit.9cf6e910.Emscripten.clang"
  },
  "schemaVersion": "1.0.1",
  "updatedAt": "2018-02-04T05:51:13.442Z"
}