{
  "contractName": "SkylerHours",
  "abi": [
    {
      "constant": true,
      "inputs": [],
      "name": "getTokensList",
      "outputs": [
        {
          "name": "",
          "type": "bytes32[]"
        }
      ],
      "payable": false,
      "stateMutability": "view",
      "type": "function"
    },
    {
      "constant": true,
      "inputs": [
        {
          "name": "",
          "type": "bytes32"
        }
      ],
      "name": "keyToToken",
      "outputs": [
        {
          "name": "key",
          "type": "bytes32"
        },
        {
          "name": "unredeemed",
          "type": "bool"
        }
      ],
      "payable": false,
      "stateMutability": "view",
      "type": "function"
    },
    {
      "constant": true,
      "inputs": [
        {
          "name": "_str",
          "type": "bytes32"
        }
      ],
      "name": "checkToken",
      "outputs": [
        {
          "name": "",
          "type": "bool"
        }
      ],
      "payable": false,
      "stateMutability": "view",
      "type": "function"
    },
    {
      "constant": false,
      "inputs": [
        {
          "name": "_str",
          "type": "bytes32"
        }
      ],
      "name": "redeemToken",
      "outputs": [],
      "payable": false,
      "stateMutability": "nonpayable",
      "type": "function"
    },
    {
      "constant": true,
      "inputs": [],
      "name": "owner",
      "outputs": [
        {
          "name": "",
          "type": "address"
        }
      ],
      "payable": false,
      "stateMutability": "view",
      "type": "function"
    },
    {
      "constant": false,
      "inputs": [
        {
          "name": "_str",
          "type": "bytes32"
        }
      ],
      "name": "createToken",
      "outputs": [],
      "payable": false,
      "stateMutability": "nonpayable",
      "type": "function"
    },
    {
      "constant": false,
      "inputs": [
        {
          "name": "newOwner",
          "type": "address"
        }
      ],
      "name": "transferOwnership",
      "outputs": [],
      "payable": false,
      "stateMutability": "nonpayable",
      "type": "function"
    }
  ],
  "bytecode": "0x6060604052336000806101000a81548173ffffffffffffffffffffffffffffffffffffffff021916908373ffffffffffffffffffffffffffffffffffffffff1602179055506105db806100536000396000f300606060405260043610610083576000357c0100000000000000000000000000000000000000000000000000000000900463ffffffff168063466bca02146100885780635f70afd7146100f25780636630e813146101405780636e8951c61461017f5780638da5cb5b146101a6578063ae3edb65146101fb578063f2fde38b14610222575b600080fd5b341561009357600080fd5b61009b61025b565b6040518080602001828103825283818151815260200191508051906020019060200280838360005b838110156100de5780820151818401526020810190506100c3565b505050509050019250505060405180910390f35b34156100fd57600080fd5b6101176004808035600019169060200190919050506102bd565b604051808360001916600019168152602001821515151581526020019250505060405180910390f35b341561014b57600080fd5b6101656004808035600019169060200190919050506102ee565b604051808215151515815260200191505060405180910390f35b341561018a57600080fd5b6101a4600480803560001916906020019091905050610345565b005b34156101b157600080fd5b6101b96103a2565b604051808273ffffffffffffffffffffffffffffffffffffffff1673ffffffffffffffffffffffffffffffffffffffff16815260200191505060405180910390f35b341561020657600080fd5b6102206004808035600019169060200190919050506103c7565b005b341561022d57600080fd5b610259600480803573ffffffffffffffffffffffffffffffffffffffff1690602001909190505061047a565b005b61026361054a565b60018054806020026020016040519081016040528092919081815260200182805480156102b357602002820191906000526020600020905b8154600019168152602001906001019080831161029b575b5050505050905090565b60026020528060005260406000206000915090508060000154908060010160009054906101000a900460ff16905082565b600080826040518082600019166000191681526020019150506040518091039020905060026000826000191660001916815260200190815260200160002060010160009054906101000a900460ff16915050919050565b60008160405180826000191660001916815260200191505060405180910390209050600060026000836000191660001916815260200190815260200160002060010160006101000a81548160ff0219169083151502179055505050565b6000809054906101000a900473ffffffffffffffffffffffffffffffffffffffff1681565b60008160405180826000191660001916815260200191505060405180910390209050806002600083600019166000191681526020019081526020016000206000018160001916905550600160026000836000191660001916815260200190815260200160002060010160006101000a81548160ff0219169083151502179055506001805480600101828161045b919061055e565b9160005260206000209001600083909190915090600019169055505050565b6000809054906101000a900473ffffffffffffffffffffffffffffffffffffffff1673ffffffffffffffffffffffffffffffffffffffff163373ffffffffffffffffffffffffffffffffffffffff16141561054757600073ffffffffffffffffffffffffffffffffffffffff168173ffffffffffffffffffffffffffffffffffffffff1614151561054657806000806101000a81548173ffffffffffffffffffffffffffffffffffffffff021916908373ffffffffffffffffffffffffffffffffffffffff1602179055505b5b50565b602060405190810160405280600081525090565b81548183558181151161058557818360005260206000209182019101610584919061058a565b5b505050565b6105ac91905b808211156105a8576000816000905550600101610590565b5090565b905600a165627a7a72305820de132acfaf8b6baa735277f7d8606b465c4a6850335f04a8313dee8ee75349420029",
  "source": "pragma solidity ^0.4.4;\n\nimport './zeppelin/ownership/Ownable.sol';\n\ncontract SkylerHours is Ownable {\n\n    struct hourToken {\n       bytes32 key;\n       bool unredeemed;\n    }\n    \n    bytes32[] allHours;\n    \n    mapping (bytes32 => hourToken) public keyToToken;\n\n    function createToken(bytes32 _str) public {\n        bytes32 hashKey = keccak256(_str);\n        keyToToken[hashKey].key = hashKey;\n        keyToToken[hashKey].unredeemed = true;\n        allHours.push(hashKey);\n    }\n    \n    function redeemToken(bytes32 _str) public {\n        bytes32 hashKey = keccak256(_str);\n        keyToToken[hashKey].unredeemed = false;\n    }\n    \n    function checkToken(bytes32 _str) public view returns (bool) {\n        bytes32 hashKey = keccak256(_str);\n        return keyToToken[hashKey].unredeemed;\n    }\n    \n    function getTokensList() public view returns (bytes32[]) {\n        return allHours;\n    }\n\n}",
  "sourcePath": "/Users/rileyskyler/projects/Skyler-Hours/contracts/SkylerHours.sol",
  "compiler": {
    "name": "solc",
    "version": "0.4.18+commit.9cf6e910.Emscripten.clang"
  },
  "schemaVersion": "1.0.1",
  "updatedAt": "2018-02-15T00:52:24.160Z"
}