{
  "contractName": "SkylerHours",
  "abi": [
    {
      "constant": false,
      "inputs": [
        {
          "name": "_name",
          "type": "bytes32"
        },
        {
          "name": "_rand",
          "type": "bytes32"
        }
      ],
      "name": "mintToken",
      "outputs": [],
      "payable": false,
      "stateMutability": "nonpayable",
      "type": "function"
    },
    {
      "constant": false,
      "inputs": [
        {
          "name": "_name",
          "type": "bytes32"
        }
      ],
      "name": "inventToken",
      "outputs": [],
      "payable": false,
      "stateMutability": "nonpayable",
      "type": "function"
    },
    {
      "constant": true,
      "inputs": [
        {
          "name": "_name",
          "type": "bytes32"
        },
        {
          "name": "_rand",
          "type": "bytes32"
        }
      ],
      "name": "checkToken",
      "outputs": [
        {
          "name": "",
          "type": "bool"
        }
      ],
      "payable": false,
      "stateMutability": "view",
      "type": "function"
    }
  ],
  "bytecode": "0x6060604052341561000f57600080fd5b6103388061001e6000396000f300606060405260043610610057576000357c0100000000000000000000000000000000000000000000000000000000900463ffffffff1680630912b7aa1461005c57806374ba31ca14610090578063f5c1281c146100b7575b600080fd5b341561006757600080fd5b61008e60048080356000191690602001909190803560001916906020019091905050610103565b005b341561009b57600080fd5b6100b56004808035600019169060200190919050506101db565b005b34156100c257600080fd5b6100e96004808035600019169060200190919080356000191690602001909190505061029c565b604051808215151515815260200191505060405180910390f35b600080600080856000191660001916815260200190815260200160002060000160009054906101000a900473ffffffffffffffffffffffffffffffffffffffff1673ffffffffffffffffffffffffffffffffffffffff161415151561016757600080fd5b8160405180826000191660001916815260200191505060405180910390209050600160008085600019166000191681526020019081526020016000206002016000836000191660001916815260200190815260200160002060006101000a81548160ff021916908315150217905550505050565b6000806000836000191660001916815260200190815260200160002060000160009054906101000a900473ffffffffffffffffffffffffffffffffffffffff1673ffffffffffffffffffffffffffffffffffffffff1614151561023d57600080fd5b33600080836000191660001916815260200190815260200160002060000160006101000a81548173ffffffffffffffffffffffffffffffffffffffff021916908373ffffffffffffffffffffffffffffffffffffffff16021790555050565b600080826040518082600019166000191681526020019150506040518091039020905060008085600019166000191681526020019081526020016000206002016000826000191660001916815260200190815260200160002060009054906101000a900460ff16915050929150505600a165627a7a72305820b37949e9e88e284a6378dfba56f0055709e349b46c11f567289f98614e8ac0220029",
  "source": "pragma solidity ^0.4.4;\n\n// import './zeppelin/ownership/Ownable.sol';\n\ncontract SkylerHours  {\n\n    struct user {\n        address owner;\n        bytes32 name;\n        mapping (bytes32 => bool) tokens;\n    }\n\n    mapping (bytes32 => user) users;\n\n    function inventToken(bytes32 _name) public {\n        require(users[_name].owner == 0);\n        users[_name].owner = msg.sender;\n    }\n\n    function mintToken(bytes32 _name, bytes32 _rand) public {\n        require(users[_name].owner != 0);\n        bytes32 key = keccak256(_rand);\n        users[_name].tokens[key] = true;\n    }\n    \n    function checkToken(bytes32 _name, bytes32 _rand) public view returns(bool) {\n      bytes32 key = keccak256(_rand);\n      return users[_name].tokens[key];\n    }\n}",
  "sourcePath": "/Users/rileyskyler/projects/Skyler-Hours/contracts/SkylerHours.sol",
  "compiler": {
    "name": "solc",
    "version": "0.4.18+commit.9cf6e910.Emscripten.clang"
  },
  "schemaVersion": "1.0.1",
  "updatedAt": "2018-02-16T20:11:23.698Z"
}