{
  "contractName": "SkylerHours",
  "abi": [
    {
      "constant": false,
      "inputs": [
        {
          "name": "_str",
          "type": "string"
        }
      ],
      "name": "redeem",
      "outputs": [
        {
          "name": "",
          "type": "bool"
        }
      ],
      "payable": false,
      "stateMutability": "nonpayable",
      "type": "function"
    },
    {
      "constant": false,
      "inputs": [
        {
          "name": "_str",
          "type": "string"
        }
      ],
      "name": "createToken",
      "outputs": [],
      "payable": false,
      "stateMutability": "nonpayable",
      "type": "function"
    },
    {
      "constant": true,
      "inputs": [
        {
          "name": "",
          "type": "bytes32"
        }
      ],
      "name": "hourTokens",
      "outputs": [
        {
          "name": "unredeemed",
          "type": "bool"
        },
        {
          "name": "name",
          "type": "string"
        }
      ],
      "payable": false,
      "stateMutability": "view",
      "type": "function"
    },
    {
      "constant": true,
      "inputs": [],
      "name": "owner",
      "outputs": [
        {
          "name": "",
          "type": "address"
        }
      ],
      "payable": false,
      "stateMutability": "view",
      "type": "function"
    },
    {
      "constant": true,
      "inputs": [
        {
          "name": "_str",
          "type": "string"
        }
      ],
      "name": "check",
      "outputs": [
        {
          "name": "",
          "type": "bool"
        }
      ],
      "payable": false,
      "stateMutability": "view",
      "type": "function"
    },
    {
      "constant": false,
      "inputs": [
        {
          "name": "newOwner",
          "type": "address"
        }
      ],
      "name": "transferOwnership",
      "outputs": [],
      "payable": false,
      "stateMutability": "nonpayable",
      "type": "function"
    }
  ],
  "bytecode": "0x6060604052336000806101000a81548173ffffffffffffffffffffffffffffffffffffffff021916908373ffffffffffffffffffffffffffffffffffffffff1602179055506106d1806100536000396000f300606060405260043610610078576000357c0100000000000000000000000000000000000000000000000000000000900463ffffffff1680631222c25a1461007d57806345576f94146100f257806373087d121461014f5780638da5cb5b14610217578063b6f921ad1461026c578063f2fde38b146102e1575b600080fd5b341561008857600080fd5b6100d8600480803590602001908201803590602001908080601f0160208091040260200160405190810160405280939291908181526020018383808284378201915050505050509190505061031a565b604051808215151515815260200191505060405180910390f35b34156100fd57600080fd5b61014d600480803590602001908201803590602001908080601f016020809104026020016040519081016040528093929190818152602001838380828437820191505050505050919050506103ed565b005b341561015a57600080fd5b6101746004808035600019169060200190919050506104e4565b6040518083151515158152602001806020018281038252838181546001816001161561010002031660029004815260200191508054600181600116156101000203166002900480156102075780601f106101dc57610100808354040283529160200191610207565b820191906000526020600020905b8154815290600101906020018083116101ea57829003601f168201915b5050935050505060405180910390f35b341561022257600080fd5b61022a610514565b604051808273ffffffffffffffffffffffffffffffffffffffff1673ffffffffffffffffffffffffffffffffffffffff16815260200191505060405180910390f35b341561027757600080fd5b6102c7600480803590602001908201803590602001908080601f01602080910402602001604051908101604052809392919081815260200183838082843782019150505050505091905050610539565b604051808215151515815260200191505060405180910390f35b34156102ec57600080fd5b610318600480803573ffffffffffffffffffffffffffffffffffffffff169060200190919050506105d5565b005b600080826040518082805190602001908083835b602083101515610353578051825260208201915060208101905060208303925061032e565b6001836020036101000a03801982511681845116808217855250505050505090500191505060405180910390209050600060016000836000191660001916815260200190815260200160002060000160006101000a81548160ff02191690831515021790555060016000826000191660001916815260200190815260200160002060000160009054906101000a900460ff16915050919050565b60008060009054906101000a900473ffffffffffffffffffffffffffffffffffffffff1673ffffffffffffffffffffffffffffffffffffffff163373ffffffffffffffffffffffffffffffffffffffff1614156104e057816040518082805190602001908083835b60208310151561047a5780518252602082019150602081019050602083039250610455565b6001836020036101000a038019825116818451168082178552505050505050905001915050604051809103902090506001806000836000191660001916815260200190815260200160002060000160006101000a81548160ff0219169083151502179055505b5050565b60016020528060005260406000206000915090508060000160009054906101000a900460ff169080600101905082565b6000809054906101000a900473ffffffffffffffffffffffffffffffffffffffff1681565b600080826040518082805190602001908083835b602083101515610572578051825260208201915060208101905060208303925061054d565b6001836020036101000a0380198251168184511680821785525050505050509050019150506040518091039020905060016000826000191660001916815260200190815260200160002060000160009054906101000a900460ff16915050919050565b6000809054906101000a900473ffffffffffffffffffffffffffffffffffffffff1673ffffffffffffffffffffffffffffffffffffffff163373ffffffffffffffffffffffffffffffffffffffff1614156106a257600073ffffffffffffffffffffffffffffffffffffffff168173ffffffffffffffffffffffffffffffffffffffff161415156106a157806000806101000a81548173ffffffffffffffffffffffffffffffffffffffff021916908373ffffffffffffffffffffffffffffffffffffffff1602179055505b5b505600a165627a7a72305820a18a7350eed1014287e0de29c026b394a1df965724b269f8cc934945d2e5891c0029",
  "source": "pragma solidity ^0.4.4;\n\nimport './zeppelin/ownership/Ownable.sol';\n\n\ncontract SkylerHours is Ownable {\n\n    struct hourToken {\n       bool unredeemed;\n       string name;\n    }\n    \n    mapping (bytes32 => hourToken) public hourTokens;\n    \n    function createToken(string _str) public onlyOwner {\n        bytes32 newStr = keccak256(_str);\n        hourTokens[newStr].unredeemed = true;\n    }\n    \n    function check(string _str) public view returns (bool) {\n        bytes32 newStr = keccak256(_str);\n        return hourTokens[newStr].unredeemed;\n    }\n    \n    function redeem(string _str) public returns (bool) {\n        bytes32 newStr = keccak256(_str);\n        hourTokens[newStr].unredeemed = false;\n        return hourTokens[newStr].unredeemed;\n    }\n\n}",
  "sourcePath": "/Users/rileyskyler/projects/Skyler-Hours/contracts/SkylerHours.sol",
  "compiler": {
    "name": "solc",
    "version": "0.4.18+commit.9cf6e910.Emscripten.clang"
  },
  "schemaVersion": "1.0.1",
  "updatedAt": "2018-02-04T05:33:31.611Z"
}