{
  "contractName": "SkylerHours",
  "abi": [
    {
      "constant": false,
      "inputs": [
        {
          "name": "_name",
          "type": "bytes32"
        },
        {
          "name": "_rand",
          "type": "bytes32"
        }
      ],
      "name": "mintToken",
      "outputs": [],
      "payable": false,
      "stateMutability": "nonpayable",
      "type": "function"
    },
    {
      "constant": true,
      "inputs": [
        {
          "name": "_name",
          "type": "bytes32"
        }
      ],
      "name": "getTokenList",
      "outputs": [
        {
          "name": "",
          "type": "bytes32[]"
        }
      ],
      "payable": false,
      "stateMutability": "view",
      "type": "function"
    },
    {
      "constant": false,
      "inputs": [
        {
          "name": "_name",
          "type": "bytes32"
        }
      ],
      "name": "inventToken",
      "outputs": [
        {
          "name": "",
          "type": "address"
        }
      ],
      "payable": false,
      "stateMutability": "nonpayable",
      "type": "function"
    },
    {
      "constant": true,
      "inputs": [
        {
          "name": "_name",
          "type": "bytes32"
        },
        {
          "name": "_rand",
          "type": "bytes32"
        }
      ],
      "name": "checkToken",
      "outputs": [
        {
          "name": "",
          "type": "bool"
        }
      ],
      "payable": false,
      "stateMutability": "view",
      "type": "function"
    }
  ],
  "bytecode": "0x6060604052341561000f57600080fd5b6104ad8061001e6000396000f300606060405260043610610062576000357c0100000000000000000000000000000000000000000000000000000000900463ffffffff1680630912b7aa1461006757806347d3e24f1461009b57806374ba31ca14610117578063f5c1281c1461017e575b600080fd5b341561007257600080fd5b610099600480803560001916906020019091908035600019169060200190919050506101ca565b005b34156100a657600080fd5b6100c060048080356000191690602001909190505061028a565b6040518080602001828103825283818151815260200191508051906020019060200280838360005b838110156101035780820151818401526020810190506100e8565b505050509050019250505060405180910390f35b341561012257600080fd5b61013c600480803560001916906020019091905050610309565b604051808273ffffffffffffffffffffffffffffffffffffffff1673ffffffffffffffffffffffffffffffffffffffff16815260200191505060405180910390f35b341561018957600080fd5b6101b0600480803560001916906020019091908035600019169060200190919050506103ac565b604051808215151515815260200191505060405180910390f35b60008160405180826000191660001916815260200191505060405180910390209050600160008085600019166000191681526020019081526020016000206003016000836000191660001916815260200190815260200160002060006101000a81548160ff0219169083151502179055506000808460001916600019168152602001908152602001600020600201805480600101828161026a919061041c565b916000526020600020900160008390919091509060001916905550505050565b610292610448565b60008083600019166000191681526020019081526020016000206002018054806020026020016040519081016040528092919081815260200182805480156102fd57602002820191906000526020600020905b815460001916815260200190600101908083116102e5575b50505050509050919050565b600033600080846000191660001916815260200190815260200160002060000160006101000a81548173ffffffffffffffffffffffffffffffffffffffff021916908373ffffffffffffffffffffffffffffffffffffffff160217905550600080836000191660001916815260200190815260200160002060000160009054906101000a900473ffffffffffffffffffffffffffffffffffffffff169050919050565b600080826040518082600019166000191681526020019150506040518091039020905060008085600019166000191681526020019081526020016000206003016000826000191660001916815260200190815260200160002060009054906101000a900460ff1691505092915050565b81548183558181151161044357818360005260206000209182019101610442919061045c565b5b505050565b602060405190810160405280600081525090565b61047e91905b8082111561047a576000816000905550600101610462565b5090565b905600a165627a7a723058206aa589b1a1203fb6d038debc2f71772e775f6c2acf51f2546fe947f41585e3ce0029",
  "source": "pragma solidity ^0.4.4;\n\n// import './zeppelin/ownership/Ownable.sol';\n\ncontract SkylerHours  {\n\n    struct user {\n        address owner;\n        bytes32 name;\n        bytes32[] tokenList;\n        mapping (bytes32 => bool) tokens;\n    }\n\n    mapping (bytes32 =>   user) users;\n\n    function inventToken(bytes32 _name) public returns(address) {\n        // require(users[_name].owner == 0);\n        users[_name].owner = msg.sender;\n        return users[_name].owner;\n    }\n\n    function mintToken(bytes32 _name, bytes32 _rand) public {\n        // require(users[_name].owner == msg.sender);\n        bytes32 key = keccak256(_rand);\n        users[_name].tokens[key] = true;\n        users[_name].tokenList.push(key);\n    }\n    \n    function getTokenList(bytes32 _name) public view returns(bytes32[]){\n        return users[_name].tokenList;\n    }\n    \n    function checkToken(bytes32 _name, bytes32 _rand) public view returns(bool) {\n      bytes32 key = keccak256(_rand);\n      return users[_name].tokens[key];\n    }\n\n}",
  "sourcePath": "/Users/rileyskyler/projects/Skyler-Hours/contracts/SkylerHours.sol",
  "compiler": {
    "name": "solc",
    "version": "0.4.18+commit.9cf6e910.Emscripten.clang"
  },
  "schemaVersion": "1.0.1",
  "updatedAt": "2018-02-21T02:09:40.851Z"
}